:100000000C944D050C9475050C9475050C94832186
:100010000C9483210C9483210C9475050C94750524
:100020000C9475050C9475050C9475050C94750568
:100030000C9475050C9478120C9475050C94750548
:100040000C94FD210C9475050C94C31F0C949D1FFA
:100050000C9475050C9475050C9475050C94750538
:100060000C949F120C9475055A166C166F16761622
:100070007D16AB16B216BF16CC16D816D816D816E3
:10008000D816D816D816D816D816D816D816D81600
:10009000D816D816D816D816D816D816D816D816F0
:1000A000D816D816D816D8165A1667166C166F16A4
:1000B00076167D16841691169E16436F6D6D656ECD
:1000C000743A2020202020004E2F41004C6F6E6794
:1000D00069747564653A202020004E2F41004C6100
:1000E0007469747564653A20202020004E2F410009
:1000F00044697265637469766974793A20004E2F99
:1001000041004761696E3A202020202020202000F5
:100110004E2F41004865696768743A2020202020EE
:1001200020004E2F4100506F7765723A202020202A
:100130002020200053796D626F6C3A20202020200F
:1001400020004E6F726D616C0053796D626F6C2090
:100150007461626C653A005458205461696C3A20AD
:100160002020202000545820507265616D626C651B
:100170003A20002D004E2F41004D65737361676575
:10018000206473743A20002D0050617468323A2064
:10019000202020202020002D0050617468313A205A
:1001A000202020202020002D0044657374696E619A
:1001B00074696F6E3A20002D0043616C6C7369673F
:1001C0006E3A20202020004C696241505253205347
:1001D000657474696E67733A002D2D2D2D2D2D2DAC
:1001E0002D2D2D2D2D2D2D2D2D2D2D2D2D2D2D2D3F
:1001F0002D2D2D2D2D2D2D2D2D2D2D2D2D2D2D2D2F
:100200002D2D2D2D2D2D2D2D2D2D2D2D2D2D2D2D1E
:100210002D2D2D2D2D2D2D2D2D2D2D2D2D2D2D2D0E
:100220002D2D2D2D2D2D2D2D2D2D2D2D2D2D2D2DFE
:100230002D2D2D2D2D2D2D2D2D2D0020202020205C
:1002400020202020202864656729202020202020CD
:100250002864656729202020202020204167652010
:10026000202020202020202020202020202020208E
:1002700020202020204167652020286D2920202073
:10028000202D2D2D2066726F6D20475053202D2D6F
:100290002D202020287365632920202000536174BD
:1002A000732048444F50204C617469747564652014
:1002B00020204C6F6E676974756465202020466944
:1002C000782020446174652020202020202054695B
:1002D0006D6520202020204461746520416C7420CD
:1002E000202020436F75727365205370656564200C
:1002F000446972202020496E74657276616C0041F9
:10030000542B444D4F5345544D49433D382C3000F8
:1003100041542B444D4F534554564F4C554D453D3C
:100320003800467265652052414D3A202020202039
:1003300000505454204F666656616C7565005365D5
:1003400074757020656E74657265642E2E2E004380
:100350006865636B20666F722073657475700065E5
:100360006E746572207365747570202E2E2E004396
:100370006F6E6E6563742073657269616C20746F53
:10038000005479706520475320746F20656E746542
:10039000722073657475703A0057726974696E677C
:1003A0002064656661756C7473002020545241436B
:1003B0004B45522076332E324E4C202000202020F8
:1003C0004150525320202020002A2A2A2A2A2A2A51
:1003D0002A2A2A20002A2A2A2A2A2A2A2A002A2ADB
:1003E0002A2A2A2A2A2A2A2A2000200020525800B3
:1003F00020545800200020505454205377617070CE
:1004000065640053656E6420626561636F6E3A00D7
:1004100020496E76616C696420706F736974696FCE
:100420006E0023004E6F204669780047505346699E
:1004300078004D20002A2A2A2A2A0020416C743A8A
:10044000002A2A0020233A002020202020202000FB
:100450002A2A2A2A2A2A2A2A00204C6F6E3A0020A9
:10046000202020202020002A2A2A2A2A2A2A2A007C
:10047000204C61743A002D2D00545800202020207B
:100480002020200020546D653A00202020202020CC
:1004900020202000202F200054583A002020202027
:1004A000202020202000202F200052583A00202019
:1004B000202000202000808183848687898A8C8D7B
:1004C0008F9192949597989A9B9D9EA0A1A3A4A684
:1004D000A7A9AAACADAFB0B2B3B4B6B7B9BABBBDF9
:1004E000BEBFC1C2C3C5C6C7C9CACBCCCECFD0D18F
:1004F000D2D4D5D6D7D8D9DADBDDDEDFE0E1E2E34E
:10050000E4E5E6E6E7E8E9EAEBECECEDEEEFF0F047
:10051000F1F2F2F3F4F4F5F5F6F7F7F8F8F9F9F982
:10052000FAFAFBFBFBFCFCFCFDFDFDFDFEFEFEFE06
:10053000FEFEFEFEFEFEFFFEFEFEFEFEFEFEFEFEDA
:10054000FEFDFDFDFDFCFCFCFBFBFBFAFAF9F9F9F5
:10055000F8F8F7F7F6F5F5F4F4F3F2F2F1F0F0EF5E
:10056000EEEDECECEBEAE9E8E7E6E6E5E4E3E2E110
:10057000E0DFDEDDDBDAD9D8D7D6D5D4D2D1D0CF03
:10058000CECCCBCAC9C7C6C5C3C2C1BFBEBDBBBA2C
:10059000B9B7B6B4B3B2B0AFADACAAA9A7A6A4A37D
:1005A000A1A09E9D9B9A9897959492918F8D8C8AED
:1005B0008987868483817F7E7C7B79787675737268
:1005C000706E6D6B6A6867656462615F5E5C5B59E3
:1005D0005856555352504F4D4C4B4948464544424E
:1005E00041403E3D3C3A39383635343331302F2E98
:1005F0002D2B2A2928272625242221201F1E1D1CB9
:100600001B1A1919181716151413131211100F0F9E
:100610000E0D0D0C0B0B0A0A090808070706060643
:10062000050504040403030302020202010101019F
:1006300001010101010101010101010101010101AA
:100640000102020202030303040404050506060670
:1006500007070808090A0A0B0B0C0D0D0E0F0F10E7
:1006600011121313141516171819191A1B1C1D1E15
:100670001F2021222425262728292A2B2D2E2F3002
:10068000313334353638393A3C3D3E4041424445B9
:100690004648494B4C4D4F505253555658595B5C48
:1006A0005E5F6162646567686A6B6D6E70727375B8
:1006B0007678797B7C7E293A200044656275676D87
:1006C0006F6465202800293A200054582054696D31
:1006D000656F7574202800293A200053656E6420E8
:1006E000626561636F6E2061667465722054582084
:1006F0002800293A2000545820656E61626C6564B8
:10070000202800206368617273293A2000546169CF
:100710006C202800206368617273293A20005072AF
:1007200065416D626C65202800293A200044697299
:100730006563746976697479202800293A20004736
:1007400061696E2028004D293A2000486569676874
:100750007420280057293A2000506F7765722028AE
:1007600000293A20004D756C7469706C69657220BF
:100770002800293A2000496E74657276616C202841
:1007800000293A20005061746832205353494420B4
:100790002800293A20005061746832202800293A44
:1007A00020005061746831205353494420280029A7
:1007B0003A005061746831202800293A0053796D5D
:1007C000626F6C203E4361722C3C4D6F746F7220DF
:1007D0002800293A00436F6D6D656E74202800294A
:1007E0003A0053534944202800293A0043616C6C75
:1007F000202800293A00446573742E20535349443D
:10080000202800293A00446573742E202800293AD4
:1008100000545820546F6E65202800293A00525821
:1008200020546F6E65202800293A005458204368F0
:10083000616E6E656C202800293A0052582043688A
:10084000616E6E656C202800293A00415052532099
:100850004368616E6E656C20280020002A002A0023
:1008600000000000240027002A0000000008000209
:100870000100000304070000000000000000000069
:100880000000250028002B000000000023002600A7
:100890002900040404040404040402020202020203
:1008A0000303030303030102040810204080010234
:1008B00004081020010204081020000000000000BD
:1008C000004F00000003000300143E143E14242ACD
:1008D0007F2A1263130864633649552250000007CB
:1008E0000000001C2241000041221C000A041F04D9
:1008F0000A04041F04045030000000080808080817
:10090000606000000000601C03003E4149413E0061
:10091000027F0000466151494621494D4B31181470
:10092000127F104F494949313E5149493201017105
:100930000D033649494936264949493E00333300BB
:10094000000053330000000814224114141414143E
:10095000412214080006015109063E4149151E783E
:10096000161116787F494949363E414141227F415F
:1009700041413E7F494949497F090909093E4141B1
:10098000497B7F0808087F00007F00003840404115
:100990003F7F080814637F404040407F0618067F71
:1009A0007F0618607F3E4141413E7F090909063EAE
:1009B0004151215E7F0919294626494949320101E1
:1009C0007F01013F4040407F0F3040300F1F601CCF
:1009D000601F6314081463030478040361514945DC
:1009E00043007F410000031C60000000417F0000C5
:1009F0000C0201020C404040404000010204002073
:100A0000545454787F484444383844444444384427
:100A100044487F3854545418087E0909000C525237
:100A2000543E7F0804047800007D000000403D0033
:100A3000007F1028440000003F40007C0418047828
:100A40007C0804047838444444387F1211110E0E97
:100A50001111127F007C0804044854545424043EAD
:100A60004444003C4040207C1C2040201C1C60185A
:100A7000601C442810284446281008064464544C3E
:100A800044000877410000007F0000004177080023
:100A9000100818100800292D1F2D11241FBECFEF9C
:100AA000D8E0DEBFCDBF12E0A0E0B1E0ECEEFBE6A7
:100AB00002C005900D92A03BB107D9F726E0A0EB4C
:100AC000B2E001C01D92AA37B207E1F715E0CCE40D
:100AD000D5E004C02197FE010E94C732CB34D10774
:100AE000C9F70E9447220C94E9350C940000CF937B
:100AF000DF93CAE0D0E088ED93E00E94A61C1816B0
:100B000019062CF488ED93E00E94841CF4CF219701
:100B100091F7DF91CF910895FF920F931F93CF9399
:100B2000DF930E9477051092FA0200E010E0F12CAA
:100B3000D0E0C0E0DD3069F188ED93E00E94A61CB2
:100B400018161906BCF788ED93E00E94841CD82F74
:100B500080ED8D0F8A3098F4F801E650FD4FD08378
:100B60000F5F1F4F6D2F88ED93E00E94DD1CCC0FAF
:100B70008C2F880F880FC80FC053CD0FDBCFDD320D
:100B8000C9F66DE288ED93E00E94DD1CFF24F3942A
:100B9000D3CFF801E650FD4F1082F110C1950E94AD
:100BA00077058C2FDF91CF911F910F91FF900895C2
:100BB000DF92EF92FF920F931F93CF93DF938C01FD
:100BC000D62E0E9477051092FA02C0E0D0E0CE0146
:100BD00086509D4F7C01F70180818D3021F49E016C
:100BE000D1101EC02DC0C017D107CCF788ED93E0FF
:100BF0000E94A61C1816190674F788ED93E00E944F
:100C0000841CF70180838D3011F08A3011F4219714
:100C100005C0682F88ED93E00E94DD1C2196D7CF98
:100C20001C161D066CF40150110980E220173107D3
:100C30003CF4F901E650FD4F80832F5F3F4FF6CF24
:100C4000F901E650FD4F1082DF91CF911F910F9176
:100C5000FF90EF90DF900C947705EF92FF920F9347
:100C60001F93CF938091CE049091CF04A091D00494
:100C7000B091D1044091D2045091D3046091D40436
:100C80007091D504840F951FA61FB71F8093CE04C3
:100C90009093CF04A093D004B093D1048091CE045C
:100CA0009091CF04A091D004B091D10427E1B695E2
:100CB000A795979587952A95D1F79093E30480930C
:100CC000E204E091E204F091E304EA54FB4FC491A2
:100CD000EC2EF12C0091C5041091C60461E0802F28
:100CE0000E94C81BE114F10409F449C08FEFE81613
:100CF000F10409F446C0F801FF27E659F74FE491E3
:100D0000E330F9F048F4E130B9F0E230A1F584B510
:100D1000806284BDC8BD39C0E730E9F0E83019F120
:100D2000E43049F580918000806280938000F092E9
:100D30008B00E0928A0029C084B5806884BDC7BD5D
:100D400024C080918000806880938000F0928900A8
:100D5000E09288001AC08091B00080688093B00053
:100D6000C093B30012C08091B00080628093B00045
:100D7000C093B4000AC080E8E816F10414F460E0FF
:100D800001C061E0802F0E94721B8091E404909169
:100D9000E50401969093E5048093E404CF911F91BC
:100DA0000F91FF90EF9008950F931F93CF93DF93D0
:100DB00080E090E00E94CD1390910D0589130EC044
:100DC0000DE015E0C0E0D0E0CE010E94CD13F801A7
:100DD00081938F012196C734D105B1F7DF91CF916F
:100DE0001F910F9108950F931F93CF93DF930DE001
:100DF00015E0C0E0D0E0F80161918F01CE010E94C2
:100E0000D8302196C734D105B1F7DF91CF911F912A
:100E10000F910895EF92FF920F931F93CF93C82FD6
:100E200088E58093FA026BE478E088ED93E00E9415
:100E3000671F4AE050E060910E0588ED93E00E9444
:100E40006C1E68E478E088ED93E00E94671FCC2375
:100E500039F00E948C059091FA02911180930E0551
:100E600088ED93E00E94561E6BE378E088ED93E0F6
:100E70000E94671F4AE050E060910F0588ED93E003
:100E80000E946C1E68E378E088ED93E00E94671F83
:100E9000CC2339F00E948C059091FA029111809335
:100EA0000F0588ED93E00E94561E6BE278E088ED16
:100EB00093E00E94671F4AE050E06091100588EDC2
:100EC00093E00E946C1E68E278E088ED93E00E9457
:100ED000671FCC2339F00E948C059091FA02911182
:100EE0008093100588ED93E00E94561E6EE178E035
:100EF00088ED93E00E94671F4AE050E06091110581
:100F000088ED93E00E946C1E6BE178E088ED93E041
:100F10000E94671FCC2339F00E948C059091FA0241
:100F200091118093110588ED93E00E94561E61E1B6
:100F300078E088ED93E00E94671F4AE050E06091FE
:100F4000120588ED93E00E946C1E6EE078E088ED5B
:100F500093E00E94671FCC2339F00E948C0590918A
:100F6000FA0291118093120588ED93E00E94561EBB
:100F700066E078E088ED93E00E94671F63E175E02A
:100F800088ED93E00E94651F63E078E088ED93E0D0
:100F90000E94671FCC2389F061E087E090E00E9407
:100FA000D8058091FA02882341F0109213056AEF68
:100FB00072E083E195E00E94EE3288ED93E00E94BA
:100FC000561E66EF77E088ED93E00E94671F4AE0C7
:100FD00050E060911B0588ED93E00E946C1E63EF6A
:100FE00077E088ED93E00E94671FCC2339F00E94E0
:100FF0008C059091FA02911180931B0588ED93E086
:101000000E94561E6CEE77E088ED93E00E94671F09
:101010006CE175E088ED93E00E94651F69EE77E072
:1010200088ED93E00E94671FCC2389F061E087E0A0
:1010300090E00E94D8058091FA02882341F0109236
:101040001C056AEF72E08CE195E00E94EE3288EDBB
:1010500093E00E94561E62EE77E088ED93E00E94D6
:10106000671F4AE050E06091240588ED93E00E94FC
:101070006C1E6FED77E088ED93E00E94671FCC2334
:1010800039F00E948C059091FA0291118093240509
:1010900088ED93E00E94561E65ED77E088ED93E0C1
:1010A0000E94671F65E275E088ED93E00E94651F6E
:1010B00062ED77E088ED93E00E94671FCC2389F012
:1010C00060E08FE090E00E94D8058091FA028823CA
:1010D00041F0109225056AEF72E085E295E00E94EA
:1010E000EE3288ED93E00E94561E6DEB77E088EDBE
:1010F00093E00E94671F6091350588ED93E00E94A0
:101100007C1E6AEB77E088ED93E00E94671FCC239A
:10111000E9F10E9477051092FA02E12CF12C870187
:1011200006501D4FF80180818D3071F4F801108256
:101130000E947705F801319780819091FA029923F6
:1011400029F18093350522C0F2E0EF16F10474F71F
:1011500088ED93E00E94A61C181619061CF788ED6E
:1011600093E00E94841CF80180838D3011F08A3056
:1011700021F4F1E0EF1AF10805C0682F88ED93E043
:101180000E94DD1C8FEFE81AF80AC9CF88ED93E0C2
:101190000E94561E62EB77E088ED93E00E94671F85
:1011A00066E375E088ED93E00E94651F6FEA77E0E3
:1011B00088ED93E00E94671FCC2389F060E087E010
:1011C00090E00E94D8058091FA02882341F01092A5
:1011D00036056AEF72E086E395E00E94EE3288ED14
:1011E00093E00E94561E62EA77E088ED93E00E9449
:1011F000671F4AE050E060913E0588ED93E00E9451
:101200006C1E6EE977E088ED93E00E94671FCC23A7
:1012100039F00E948C059091FA02911180933E055D
:1012200088ED93E00E94561E66E977E088ED93E032
:101230000E94671F6FE375E088ED93E00E94651FD1
:1012400062E977E088ED93E00E94671FCC2389F084
:1012500060E087E090E00E94D8058091FA02882340
:1012600041F010923F056AEF72E08FE395E00E9433
:10127000EE3288ED93E00E94561E65E877E088ED37
:1012800093E00E94671F4AE050E06091470588EDB7
:1012900093E00E946C1E61E877E088ED93E00E9485
:1012A000671FCC2339F00E948C059091FA029111AE
:1012B0008093470588ED93E00E94561E66E777E02D
:1012C00088ED93E00E94671F4AE050E06091480576
:1012D00088ED93E00E946C1E62E777E088ED93E072
:1012E0000E94671FCC2339F00E948C059091FA026E
:1012F00091118093480588ED93E00E94561E65E6A3
:1013000077E088ED93E00E94671F4AE050E060912B
:10131000490588ED93E00E946C1E61E677E088ED58
:1013200093E00E94671FCC2339F00E948C059091B6
:10133000FA0291118093490588ED93E00E94561EB0
:1013400069E577E088ED93E00E94671F4AE050E08E
:1013500060914A0588ED93E00E946C1E64E577E099
:1013600088ED93E00E94671FCC2339F00E948C0522
:101370009091FA02911180934A0588ED93E00E94C2
:10138000561E6BE477E088ED93E00E94671F4AE009
:1013900050E060914B0588ED93E00E946C1E66E47E
:1013A00077E088ED93E00E94671FCC2339F00E941C
:1013B0008C059091FA02911180934B0588ED93E092
:1013C0000E94561E6FE377E088ED93E00E94671F4E
:1013D0004AE050E060914C0588ED93E00E946C1E5D
:1013E0006BE377E088ED93E00E94671FCC2339F030
:1013F0000E948C059091FA02911180934C0588ED22
:1014000093E00E94561E6DE277E088ED93E00E9423
:10141000671F4AE050E060914D0588ED93E00E941F
:101420006C1E69E277E088ED93E00E94671FCC2391
:1014300039F00E948C059091FA02911180934D052C
:1014400088ED93E00E94561E6EE177E088ED93E010
:101450000E94671F4AE050E060914E0588ED93E0DE
:101460000E946C1E64E177E088ED93E00E94671FA4
:10147000CC2339F00E948C059091FA02911180934F
:101480004E0588ED93E00E94561E6DE077E088EDF2
:1014900093E00E94671F4AE050E060914F0588ED9D
:1014A00093E00E946C1E63E077E088ED93E00E9479
:1014B000671FCC2339F00E948C059091FA0291119C
:1014C00080934F0588ED93E00E94561E66EF76E00C
:1014D00088ED93E00E94671F4AE050E0609150055C
:1014E00088ED93E00E946C1E62EF76E088ED93E059
:1014F0000E94671FCC2339F00E948C059091FA025C
:1015000091118093500588ED93E00E94561E6BED7B
:1015100076E088ED93E00E94671F4AE050E060911A
:10152000510588ED93E00E946C1E67ED76E088ED32
:1015300093E00E94671FCC2339F00E948C059091A4
:10154000FA0291118093510588ED93E00E94561E96
:101550006AEC76E088ED93E00E94671F4AE050E075
:101560006091520588ED93E00E946C1E66EC76E077
:1015700088ED93E00E94671FCC2339F00E948C0510
:101580009091FA0291118093520588ED93E00E94A8
:10159000561E6AEB76E088ED93E00E94671F4AE0F2
:1015A00050E06091530588ED93E00E946C1E66EB5D
:1015B00076E088ED93E00E94671FCC2339F00E940B
:1015C0008C059091FA0291118093530588ED93E078
:1015D0000E94561ECC2349F00E94F306CF911F9122
:1015E0000F91FF90EF900C94D406CF911F910F9123
:1015F000FF90EF9008954F925F926F927F928F923B
:101600009F92AF92BF92CF92DF92EF92FF920F9391
:101610001F93CF93DF93D42F20E034E244E759E4C3
:101620000E9412300E9416328B019C01002737FD68
:101630000395112722273327C02F97FF07C09095C6
:101640008095709561957F4F8F4F9F4F20E4C22EFC
:1016500022E4D22E2FE0E22EF12CA70196010E9467
:10166000863229013A019B01AC01ACE3B0E00E9453
:10167000E630A70196010E94863269017A014B018A
:101680005C01A4E6B0E0A30192010E94E630C60E20
:10169000D71EE81EF91EC501B40120E137E240E083
:1016A00050E00E948632122F032FB42EA52E8AEE10
:1016B00092E020E32093EA0220E1C21627E2D2065C
:1016C000E104F104C0F0FF92EF92DF92CF9269E360
:1016D00072E07F936F931F9226E02F939F938F93D7
:1016E0000E9418338DB79EB70A960FB6F8949EBF26
:1016F0000FBE8DBF19C0FF92EF92DF92CF9289E3A8
:1017000092E09F938F931F9285E08F938BEE92E0F0
:101710009F938F930E9418338DB79EB70A960FB68A
:10172000F8949EBF0FBE8DBF8EE28093EF02AF9202
:10173000BF920F931F938EE392E09F938F931F921C
:1017400083E08F9380EF92E09F938F930E941833F2
:101750001092F3028DB79EB70A960FB6F8949EBF0B
:101760000FBE8DBFDD2351F0CC2311F083E501C006
:101770008EE48093F2028BEE92E009C0CC2311F04C
:1017800087E501C085E48093F2028AEE92E0DF9162
:10179000CF911F910F91FF90EF90DF90CF90BF906E
:1017A000AF909F908F907F906F905F904F90089533
:1017B0004F925F926F927F928F929F92AF92BF9261
:1017C000CF92DF92EF92FF920F931F93CF93DF930D
:1017D000CDB7DEB7A4970FB6F894DEBF0FBECDBF6E
:1017E0002B013C0129A33AA34BA35CA38091BA022D
:1017F00060E0882309F4FEC080E00E941C1A81E0AA
:1018000080935A0580935B0563EB74E084E595E073
:101810000E94671F6CE175E084E595E00E94651FFA
:101820006EEA74E084E595E00E94671F10925A0505
:1018300010925B0562E080E00E941C1A6AEA74E084
:1018400084E595E00E94671F60910F058DE7689F12
:10185000B0011124CB01770FAA0BBB0BBC01CD014A
:10186000605C73468F4F9F4F2AE0822E912CA12CF3
:10187000B12CA50194010E94A83279018A0190E25D
:10188000E91A9DEDF90A0D4F1F4F38EE432E33E054
:10189000532E612C712CC801B701A30192010E9443
:1018A000A83248EEC42E43E0D42EC29EB001C39E9F
:1018B000700DD29E700D1124CB01770FAA0BBB0BBC
:1018C000E81AF90A0A0B1B0B1F930F93FF92EF9272
:1018D0003F932F9353E4E52E52E0F52EFF92EF92C3
:1018E0000AEE12E01F930F930E944833B80184E57B
:1018F00095E00E94651F66EA74E084E595E00E9429
:10190000671F4AE050E06091110584E595E00E9470
:101910006C1E6CE974E084E595E00E94671F63E04B
:1019200080E00E941C1A68E974E084E595E00E945A
:10193000671F609110059DE7699FB0011124CB01DD
:10194000770FAA0BBB0BBC01CD01605C73468F4FB8
:101950009F4FA50194010E94A83249015A01A0EEAF
:101960008A0EA2E29A1EA2E0AA1EB11CC501B40111
:10197000A30192010E94A832C29EC001C39E900D95
:10198000D29E900D1124092E000CAA0BBB0B240132
:101990003501481A590A6A0A7B0AD301C201BF936A
:1019A000AF939F934F923F932F93FF92EF921F938A
:1019B0000F930E944833B80184E595E00E94651FAB
:1019C00064E974E084E595E00E94671F4AE050E016
:1019D0006091120584E595E00E946C1E6AE874E04F
:1019E00084E595E00E94671F0FB6F894DEBF0FBE36
:1019F000CDBF5CC180E00E941C1A81E080935B0532
:101A000064E874E084E595E00E94671F10925B052E
:101A10008091B605811107C065ED73E084E595E01E
:101A20000E94671F4CC01092B705C090B805D090B7
:101A3000B905E090BA05F090BB0584E6882E912C9C
:101A4000A12CB12CC701B601A50194010E948632D8
:101A5000CA01B901A50194010E9486327F936F9358
:101A6000C701B60120E137E240E050E00E94863233
:101A7000CA01B901A50194010E9486327F936F9338
:101A8000C701B60120E432E44FE050E00E94863204
:101A90001F922F9385E092E09F938F93DE01119622
:101AA0007D01BF93AF930E944833B70184E595E071
:101AB0000E94651F0FB6F894DEBF0FBECDBF6CE766
:101AC00074E084E595E00E94671F60E082E10E9477
:101AD0001C1A002319F069E774E002C066E774E09D
:101AE00084E595E00E94671F61E080E00E941C1A77
:101AF00081E080935B0560E774E084E595E00E94F7
:101B0000671F10925B0580913B01882369F0EE24EA
:101B1000E39406E010E02BE030E040918605C3013D
:101B2000B2010E948A1706C067E674E084E595E07A
:101B30000E94671F6FE574E084E595E00E94671FCF
:101B400062E080E00E941C1A81E080935B0569E5F9
:101B500074E084E595E00E94671F10925B05809118
:101B60003B01882379F0EE24E39406E010E02CE0BA
:101B700030E04091860569A17AA18BA19CA10E94C9
:101B80008A1706C060E574E084E595E00E94671F4F
:101B900068E474E084E595E00E94671F62E08EE0EF
:101BA0000E941C1A81E080935B0564E474E084E584
:101BB00095E00E94671F10925B0562E081E10E9440
:101BC0001C1A80913B01882381F04091EE05109210
:101BD000EF056091F4057091F5058091F6059091FF
:101BE000F70521E00E94A01A06C061E474E084E5D4
:101BF00095E00E94671F63E080E00E941C1A81E06C
:101C000080935B056BE374E084E595E00E94671FB9
:101C100010925B0563E085E00E941C1A80913B01F5
:101C2000882311F163E085E00E941C1AF090E00522
:101C30001092E1056091E6057091E7058091E80555
:101C40009091E9050E94B32F20E030E048EC52E487
:101C50000E94A431EE24E39402E010E027E030E09B
:101C60004F2D0E948A1706C065E374E084E595E075
:101C70000E94671F62E374E084E595E00E94671F9D
:101C800063E08EE00E941C1A81E080935B058091E6
:101C90003B01882319F06BE274E002C064E274E057
:101CA00084E595E00E94671F10925B05A4960FB62D
:101CB000F894DEBF0FBECDBFDF91CF911F910F9182
:101CC000FF90EF90DF90CF90BF90AF909F908F905C
:101CD0007F906F905F904F9008954F925F926F92B8
:101CE0007F928F929F92AF92BF92CF92DF92EF92AC
:101CF000FF920F93CF93DF9300D000D000D0CDB7E9
:101D0000DEB72B013C0149015A0181E08093B40305
:101D100089E08093D6031092B5031092D7030E94F6
:101D20006818811192C0011190C08091B303811194
:101D3000FCCF81E08093B3038093B2039FEF909335
:101D4000B1031092B00394E09093AF0380938E039D
:101D500080918E03826180938E0380918D03813008
:101D600061F410928D0380918E038093BB0080916B
:101D7000BC0083FDF8CF85EC01C085EE8093BC00EC
:101D80008091B3038130E1F38091B003853018F482
:101D90008091B00301C085E0AFE8B3E026E133E015
:101DA000F9019E2F921B981718F49D919193F9CFEA
:101DB0001092860380938503CE0101967C016C010D
:101DC000F601EE19FF09909185038091860398171B
:101DD00041F081E095E00E94B710F60181936F0118
:101DE000EFCFEE0DFF1D10828981833271F58A815C
:101DF00090911005981721F08093100581E001C0A3
:101E000080E09B8120910F05291719F090930F0511
:101E100081E09C8120911205291719F090931205F9
:101E200081E09D8120911105291719F090931105EA
:101E300002C0882351F02091120540911105609154
:101E4000100580910F050E94CF1381E08093B403A9
:101E500089E08093D6031092B5031092D70362E213
:101E600074E081E095E00E94671F60910E0581E0BB
:101E700095E00E9439116091100581E095E00E9483
:101E8000391160910F0581E095E00E943911609150
:101E9000120581E095E00E9439116091110581E001
:101EA00095E00E9439111092B7056091B8057091C4
:101EB000B9058091BA059091BB0520E432E44FE06A
:101EC00050E00E948632622F81E095E00E94391135
:101ED0001092B7056091B8057091B9058091BA0567
:101EE0009091BB0520E137E240E050E00E9486324D
:101EF00064E6C62ED12CE12CF12CCA01B901A70150
:101F000096010E94863281E095E00E94391110927C
:101F1000B7056091B8057091B9058091BA059091A7
:101F2000BB05A70196010E948632CA01B901A7012B
:101F300096010E94863281E095E00E94391110924C
:101F4000EF056091F40581E095E00E943911C3012D
:101F5000B2010E941D32E62E70E080E090E00E9407
:101F6000B32F9B01AC01C301B2010E94373120E0C5
:101F700030E048EC52E40E9412302B013C010E94F8
:101F80001D32F62E6E2D81E095E00E9439116F2DE5
:101F900081E095E00E9439116F2D70E080E090E0C3
:101FA0000E94B32F9B01AC01C301B2010E943731E3
:101FB00020E030E048EC52E40E9412300E941D32D2
:101FC00081E095E00E943911C501B4010E941D32E3
:101FD000E62E70E080E090E00E94B32F9B01AC0100
:101FE000C501B4010E94373120E030E048EC52E4F2
:101FF0000E9412304B015C010E941D32F62E6E2DA4
:1020000081E095E00E9439116F2D81E095E00E94FA
:1020100039116F2D70E080E090E00E94B32F9B019A
:10202000AC01C501B4010E94373120E030E048EC3A
:1020300052E40E9412300E941D3281E095E00E941D
:102040003911002319F083E090E009C08091BA02B1
:10205000882319F082E090E002C081E090E00E94C5
:1020600063181092E1056091E6057091E705809193
:10207000E8059091E9050E94B32F20E030E048EC9C
:1020800052E40E94A43120E030E048EC52E40E9487
:1020900012300E9416326B017C018091E0058111A3
:1020A0000BC080915305813039F430E4C32E32EEF9
:1020B000D32EEE24E394F12C6F2D992767FD909594
:1020C000792F892F81E095E00E943911B701992776
:1020D00077FD9095892F81E095E00E94391199272D
:1020E000F7FC9A958F2D7E2D6D2D81E095E00E9455
:1020F00039116C2D81E095E00E9439116091240521
:1021000081E095E00E9439116091350581E095E00C
:102110000E9439116CE175E081E095E00E94651F35
:1021200026960FB6F894DEBF0FBECDBFDF91CF91DC
:102130000F91FF90EF90DF90CF90BF90AF909F9066
:102140008F907F906F905F904F900C9468180895D7
:10215000E091860380918503E81730F4F0E0EA5EB1
:10216000FC4F808190E008958FEF9FEF089590914C
:10217000860380918503981750F4E92FF0E0EA5E1A
:10218000FC4F208130E09F5F9093860302C02FEFC9
:102190003FEFC90108958091850390E02091860367
:1021A000821B91090895089580E090E0089585EDDF
:1021B0008093BC008091BC0084FDFCCF1092B303DF
:1021C000089540915803262F30E0240F311D21320D
:1021D0003105DCF42091B3032430C9F4FC0180E024
:1021E00090E0861758F4309158032191DC01AA5CE5
:1021F000BC4FA30FB11D2C930196F3CF80915803D0
:10220000680F6093580380E0089581E0089582E0AC
:102210000895CF92DF92EF92FF920F931F93CF9387
:10222000DF937C01262F972F8A018091B4038823A6
:1022300091F0C62FD72F6E01C40ED51ECC15DD052B
:1022400071F06991D701ED91FC910190F081E02D41
:10225000C7010995F3CF642F822F0E94E110C801B6
:10226000DF91CF911F910F91FF90EF90DF90CF9072
:102270000895CF93DF931F92CDB7DEB76983209186
:10228000B4032223D1F02091D703203240F021E083
:1022900030E0FC013383228380E090E015C0809120
:1022A000B503E82FF0E0EA54FC4F998190838F5FEB
:1022B0008093B5038093D70305C061E0CE010196FA
:1022C0000E94E11081E090E00F90DF91CF9108959E
:1022D000CF93DF93EC018A859B85AC85BD858E838A
:1022E0009F83A887B9870E943E1C6A837B838C8367
:1022F0009D8381E089838883DF91CF9108952F9218
:102300003F924F925F926F927F928F929F92AF9285
:10231000BF92CF92DF92EF92FF920F931F93CF93D2
:10232000DF93D82FC92F8B010E94702F24E630E055
:1023300040E050E00E94863249015A019B01AC0105
:1023400060E876E988E990E00E9456326B017C01F2
:10235000F80191828082ED2FFC2F2191822F022E95
:10236000000C990BC0970A97C0F32E3239F51F0164
:1023700080E8882E86E9982E88E9A82EB12C9AE06C
:10238000492E512C612C712CF101C1911F010C2E91
:10239000000CDD0BE097CA30D10580F4C501B40113
:1023A000A30192010E94863249015A01DE010E9476
:1023B000CD32C60ED71EE81EF91EE6CFA5E0B0E06E
:1023C000A70196010E94E6306F5F7F4F8F4F9F4FAE
:1023D00023E030E040E050E00E948632F8012283A2
:1023E0003383448355831682DF91CF911F910F91E0
:1023F000FF90EF90DF90CF90BF90AF909F908F9025
:102400007F906F905F904F903F902F900895FF9234
:102410000F931F93CF93DF93EC01FF24F3948881F4
:102420008D3211F0F12C01C02196CE010E94702F47
:102430009B01AC01A4E6B0E00E94E630FE014991A8
:10244000242F042E000C330B205331092A30310580
:10245000A8F34E3241F52181022E000C330B20539C
:1024600031092A303105F8F44AE0429F8001439F48
:10247000100D1124012E000C220B330B600F711F65
:10248000821F931F0281002E000C110B00531109B3
:102490000A30110540F4012E000C220B330B600FA3
:1024A000711F821F931FFF2039F0909580957095C2
:1024B00061957F4F8F4F9F4FDF91CF911F910F916C
:1024C000FF900895E0918903F0918A03E817F907D6
:1024D00069F4A389B4899C918589809589238C931B
:1024E00010928A031092890381E0089580E0089594
:1024F0001F920F920FB60F9211242F933F934F9379
:102500005F936F937F938F939F93AF93BF93EF935B
:10251000FF93E091B602F091B7020995FF91EF9118
:10252000BF91AF919F918F917F916F915F914F91EB
:102530003F912F910F900FBE0F901F9018951F92F3
:102540000F920FB60F9211242F933F934F935F93E7
:102550006F937F938F939F93AF93BF93EF93FF936B
:102560008091B900887F803609F49CC068F5883274
:1025700009F45BC090F4803109F454C038F4882326
:1025800009F4F6C0883009F44DC0F6C0883109F46A
:102590004CC0803209F45DC0EFC0803409F468C0DB
:1025A00048F4803309F455C0883309F0E5C08093BE
:1025B000B103D8C0803509F44FC0883509F45DC037
:1025C000883409F0D9C0D6C0883909F4C7C0A8F446
:1025D000883709F467C038F4883609F463C0803757
:1025E00009F460C0C9C0883809F4B8C0803909F45A
:1025F0005FC0803809F0C0C05BC0803B09F486C072
:1026000038F4803A09F466C0883A09F47FC0B4C04F
:10261000803C09F4A7C0883C09F4A4C0883B09F4B5
:102620008AC0AAC080918E0310C09091B00380919F
:10263000AF03981770F5E091B00381E08E0F80939F
:10264000B003F0E0E157FC4F80818093BB0085EC44
:1026500086C08093B1038EC0E091B00381E08E0FFD
:102660008093B0038091BB00F0E0E157FC4F808382
:102670009091B0038091AF036EC0E091B00381E010
:102680008E0F8093B0038091BB00F0E0E157FC4FC8
:1026900080838091B20381116DC081E080938D03AE
:1026A00084EA61C083E08093B30310927C03CFCFB0
:1026B00080917C03803208F051C0E0917C0381E07E
:1026C0008E0F80937C038091BB00F0E0E45AFC4FB6
:1026D0008083BDCF85EC8093BC001092B3038091C2
:1026E0007C03803230F4E0917C03F0E0E45AFC4F4C
:1026F000108260917C0370E0E0915A03F0915B03DB
:102700008CE593E0099510927C0336C084E08093B9
:10271000B3031092590310925803E0915603F091BD
:102720005703099580915803811105C081E080937A
:10273000580310923603E091590381E08E0F809385
:102740005903F0E0EA5CFC4F80818093BB009091DC
:10275000590380915803981708F479CF85E880933E
:10276000BC000AC085EC8093BC001092B30304C087
:102770001092B1030E94D710FF91EF91BF91AF91DA
:102780009F918F917F916F915F914F913F912F9189
:102790000F900FBE0F901F9018950C94D0300F9390
:1027A0001F93CF93DF93CDB7DEB7E2970FB6F894C0
:1027B000DEBF0FBECDBF562FE62FF0E0603510F024
:1027C000E055F109A82FB0E0803510F0A055B1090F
:1027D0001F924F931F922F931DE71A9F90011B9FEB
:1027E000300D11243F932F9340E5642F0E946632F1
:1027F000282F30E02C5F3F4F3F932F931E9FC00147
:102800001F9F900D11249F938F93852F0E946632F6
:1028100090E004969F938F938DE492E09F938F9323
:102820008E010F5F1F4F1F930F930E94483388ED57
:1028300093E00E94561EB80188ED93E00E945A1E54
:10284000B80187E695E00E945A1E0FB6F894DEBFE5
:102850000FBECDBFE2960FB6F894DEBF0FBECDBF60
:10286000DF91CF911F910F9108954F925F926F92D8
:102870007F92AF92BF92CF92DF92EF92FF920F932F
:102880001F93CF93DF936B017C010E943E1C2B01B1
:102890003C01D1E087E695E00E94BD1D892B09F43B
:1028A000EEC287E695E00E94D51DC82F80912306D1
:1028B00090912406A0912506B09126060196A11DAF
:1028C000B11D8093230690932406A0932506B09310
:1028D0002606C43209F4B1C2E0911D06C53234F4B3
:1028E000CA3071F0CD3009F0B6C20AC0CA3241F028
:1028F000CC3209F0B0C280910A068C2780930A0678
:10290000EF3008F08CC2F0E0E45FF94F1082809164
:102910000B06882309F46BC120910C063FEB320FA4
:10292000822F022E000C990B363010F4C79707C087
:102930002156263018F48755910901C0C097282FD9
:102940002295207F30910D064FEB430F832F032EEE
:10295000000C990B463010F4C79707C0315636303B
:1029600018F48755910901C0C097820F90910A060B
:10297000891329C180912F0690913006A0913106CC
:10298000B09132060196A11DB11D80932F06909340
:102990003006A0933106B093320680911E0688233C
:1029A00099F08091270690912806A0912906B09170
:1029B0002A060196A11DB11D809327069093280633
:1029C000A0932906B0932A0610911B06112309F43F
:1029D0006BC0113009F0D0C08091AE059091AF0569
:1029E000A091B005B091B1058093AA059093AB0575
:1029F000A093AC05B093AD050E943E1C6093B20558
:102A00007093B3058093B4059093B5051093A90511
:102A10001093A8058091BC059091BD05A091BE05BD
:102A2000B091BF058093B8059093B905A093BA05FE
:102A3000B093BB050E943E1C6093C0057093C10516
:102A40008093C2059093C3051093B7051093B60504
:102A500080911E06882309F48FC087E0E6E9F5E03F
:102A6000A8E8B5E001900D928A95E1F787E0EDE9DD
:102A7000F5E0AFE8B5E001900D928A95E1F70E948C
:102A80003E1C6093A4057093A5058093A6059093C2
:102A9000A705109387051093860584EC95E00E94A6
:102AA000681182ED95E066C08091BC059091BD05EE
:102AB000A091BE05B091BF058093B8059093B9056C
:102AC000A093BA05B093BB050E943E1C6093C0055D
:102AD0007093C1058093C2059093C305D093B70549
:102AE000D093B60580911E06882321F187E0E6E9A0
:102AF000F5E0A8E8B5E001900D928A95E1F787E04E
:102B0000EDE9F5E0AFE8B5E001900D928A95E1F7C7
:102B10000E943E1C6093A4057093A5058093A605B2
:102B20009093A705D0938705D093860580EE95E016
:102B30000E9468118091F8059091F905A091FA051D
:102B4000B091FB058093F4059093F505A093F605ED
:102B5000B093F7050E943E1C6093F0057093F10559
:102B60008093F2059093F305D093EF05D093EE0593
:102B70008CEF95E00E9468110091210610912206C9
:102B80000115110509F44BC1E0912106F0912206CF
:102B900066A177A1F80186A197A10E94F932892B3D
:102BA00009F03DC1B801C80140960E9402330E945D
:102BB0003E1CF80160A371A382A393A3D5A3D4A361
:102BC00002A513A5DDCF80912B0690912C06A09134
:102BD0002D06B0912E060196A11DB11D80932B06E6
:102BE00090932C06A0932D06B0932E0618C19091B9
:102BF0001C06911147C062E872E08CE096E00E94EA
:102C0000F932892B41F068E872E08CE096E00E948E
:102C1000F932892B19F4D0931B0616C06EE872E0C6
:102C20008CE096E00E94F932892B41F064E972E071
:102C30008CE096E00E94F932892B19F410921B0661
:102C400003C082E080931B0680911F0690912006AE
:102C5000909322068093210600912106109122066E
:102C60000115110509F4DBC0F801A6A0B7A06CE0BE
:102C700076E0C5010E94F93297FFC5C0F80182A530
:102C800093A5E6CFE0911B06E23009F491C0809154
:102C90000C06882309F48CC020E2E29FF001112485
:102CA000E92B3197E932F10508F082C0EC5CFF4F67
:102CB0000C94C7328CE096E00E9407126093BC052A
:102CC0007093BD058093BE059093BF0571C091E0E0
:102CD000813409F043C043C066E975E009C091E062
:102CE000833509F090E090939C0562C06DE975E032
:102CF0008CE096E00E947F115BC091E0873509F07F
:102D000090E09093A30554C08CE096E00E940712D7
:102D10006093CE057093CF058093D0059093D10535
:102D200047C08CE096E00E9407126093DC05709328
:102D3000DD058093DE059093DF053AC08CE096E0D8
:102D40000E94702F6093AE057093AF058093B0051D
:102D50009093B1052DC091E081330CF490E09093F5
:102D60001E0626C08CE096E00E94702F6093F80546
:102D70007093F9058093FA059093FB0519C08CE0D8
:102D800096E00E94071260930606709307068093F0
:102D90000806909309060CC08CE096E00E9407128A
:102DA0006093EA057093EB058093EC059093ED0535
:102DB00000912106109122060115110581F1E09183
:102DC0002106F091220666A177A1F80186A197A1BC
:102DD0000E94F932892B19F5F80120A531A58091BF
:102DE0001C0690E082179307D4F02817390739F4AE
:102DF00040E150E06CE076E0C8010E940933F80140
:102E000002A513A5D9CF6CE076E0C5010E94F93286
:102E10001816190624F410922206109221068091A9
:102E20001C068F5F80931C0610921D0681E0CA323B
:102E300009F080E080930B062DCD10921D061092B4
:102E40001C0610920A0682E080931B0610920B0665
:102E500010921E061FCDEE3040F481E08E0F80935D
:102E60001D06F0E0E45FF94FC08380910B068111ED
:102E700011CD80910A06C827C0930A060BCDF5EF45
:102E8000CF16F1E0DF06E104F104E8F00E948D1AAC
:102E90002091B0023091B10226503F4F28173907D8
:102EA00044F087E00E94491B21E0892B19F020E0C3
:102EB00001C021E02093B80282E00E94491B892BC7
:102EC00011F4D093B9020E943E1CDC01CB0184199D
:102ED0009509A609B7098C159D05AE05BF0558F4DF
:102EE0009091B8028091BA02981305C08091B902FE
:102EF000882309F4CFCCDF91CF911F910F91FF90E0
:102F0000EF90DF90CF90BF90AF907F906F905F90E9
:102F10004F9008958F929F92AF92BF92CF92DF927F
:102F2000EF920F931F93CF93DF934B015C01E90165
:102F300041111BC0C230D1057CF0EE2029F06EE5B6
:102F400078E084E595E004C06CE578E088ED93E0F6
:102F50000E94671F2197EECFE11057C06AE578E025
:102F600088ED93E00E94671F50C09801AB01BC013F
:102F7000EE2019F084E595E002C088ED93E00E9410
:102F8000831EC501B4010E9416326B0177FF04C095
:102F9000CC24DD24C61AD70A20E030E0A901C501FF
:102FA000B4010E94AC2F482F880F550BCA01882707
:102FB000990F881F99270196800F911F28EEC2163E
:102FC00023E0D2065CF424E6C216D10454F42AE0CD
:102FD000C216D1044CF401E010E008C004E010E097
:102FE00005C003E010E002C002E010E0080F191F66
:102FF0000C171D0754F4E11005C060E288ED93E062
:103000000E947C1E0F5F1F4FF3CF60E070E0CB018A
:10301000DF91CF911F910F91EF90DF90CF90BF90F4
:10302000AF909F908F900C943514833081F028F4EA
:10303000813099F08230A1F008958730A9F088306E
:10304000B9F08430D1F4809180008F7D03C08091ED
:1030500080008F7780938000089584B58F7702C0B9
:1030600084B58F7D84BD08958091B0008F7703C0B3
:103070008091B0008F7D8093B00008953FB7F894A1
:103080008091810390918203A0918303B091840386
:1030900026B5A89B05C02F3F19F00196A11DB11DB3
:1030A0003FBFBA2FA92F982F8827820F911DA11DEE
:1030B000B11DBC01CD0142E0660F771F881F991F2B
:1030C0004A95D1F70895682F81E095E00C94391165
:1030D0002091D7039091D603213208F04AC0809105
:1030E000B3038111FCCF32E03093B30331E030936E
:1030F000B2033FEF3093B1031092B0032093AF03BC
:10310000A6EBB3E04FE853E0FA013E2F341B321731
:1031100018F43D913193F9CF10928E0320918E03D4
:10312000990F922B90938E0390918D03913061F4BF
:1031300010928D0390918E039093BB009091BC00F0
:1031400093FDF8CF95EC01C095EE9093BC00909163
:10315000B3039230E1F39091B1039F3F79F08091F6
:10316000B103803241F08091B103803331F084E0CB
:1031700005C081E003C082E001C083E01092B50386
:103180001092D7031092B4030895CF92DF92EF927A
:10319000FF92CF93DF936C01990FEE08FF08F7FEC3
:1031A0001BC06DE288ED93E00E947C1EEC01442779
:1031B0005527BA014C195D096E097F092AE088ED8F
:1031C00093E00E940D1E8C0F9D1FDF91CF91FF9009
:1031D000EF90DF90CF9008952AE0B701A60188ED27
:1031E00093E0DF91CF91FF90EF90DF90CF900C9420
:1031F0000D1ECF92DF92EF92FF92B1E09091F10419
:103200009111B0E091E02091F204211190E0AB2FF8
:10321000A9234091F3045091F4042091CB049091A0
:10322000F00438E061E0782F7170AA2359F0FA01B8
:10323000E727AF0156954795E0FF04C0E8E04E2729
:10324000E4E85E27772379F09F5F953041F5BB2353
:1032500031F11092E5041092E404E091E404F0915D
:10326000E5043B97D4F3262749F4C090DA04D090C4
:10327000DB04E090DC04F090DD0408C0C090D604CC
:10328000D090D704E090D804F090D904C092D20432
:10329000D092D304E092D404F092D50490E08695C5
:1032A0001092E5041092E404E091E404F091E50446
:1032B0003B97D4F3315009F0B6CF5093F4044093C8
:1032C000F3049093F0042093CB04FF90EF90DF90F1
:1032D000CF900895FC012191CF01222399F04091D4
:1032E0008B0350918C03662311F0220F330BFA01EC
:1032F000EB58FB4F20834F5F5F4F50938C034093FD
:103300008B03E8CF089510928205109281051092E8
:10331000800510927F0510927E0510927D058DE943
:1033200091E0909384058093830590917305963185
:1033300008F057C02DEB30E030937E0520937D05DB
:103340002BE931E03093800520937F052CE231E0BA
:10335000309382052093810520916800983050F0C9
:1033600031E09E3008F430E081E001C0880F3A95EA
:10337000EAF701C084E0822B80936800983038F02F
:103380009E3040F0963148F020E030E008C02DE655
:1033900030E005C02BE630E002C02CE630E0309390
:1033A0007B0520937A05983030F481E001C0880FC6
:1033B0009A95EAF70EC0292F30E09E3018F4285075
:1033C000310902C02E50310981E001C0880F2A95D1
:1033D000EAF780937C05809183059091840501979D
:1033E000F1F78091810590918205892B21F18091DF
:1033F000890390918A0325E087369207E1F00097D0
:1034000011F00E946212809185058E7F8093850560
:10341000109288031092870387E695E090938A03C1
:1034200080938903E0917A05F0917B0590818091EA
:103430007C05892B8083089590916405891748F550
:1034400090916305691728F580936605609365057B
:10345000982F990F890F880F80936105862F880F09
:10346000880F880F80936205606B84E595E00E9469
:103470001420609161056F7084E595E00E9414202E
:103480006091610562956F70606184E595E00C94D0
:1034900014200895CF93DF9361E284E595E00E94C4
:1034A000142060E084E595E00E9414206FE784E535
:1034B00095E00E94142062E284E595E00E941420C9
:1034C00060E084E595E00E94142063E084E595E0E7
:1034D0000E94142060EB84E595E00E94142060E0D7
:1034E00084E595E00E94142060E184E595E00E9467
:1034F0001420C0E0D2E060E084E595E00E94F51F72
:103500002197C9F766EA84E595E00E94142060E0FF
:1035100080E0DF91CF910C941C1A80E480937C00B2
:1035200080917A00806480937A0080917A0086FD91
:10353000FCCF809178002091790090E0922B089543
:103540000F931F93CF93DF93CDB7DEB7A1970FB63D
:10355000F894DEBF0FBECDBF32E1EEE8F1E08E01A0
:103560000F5F1F4FD80101900D923A95E1F7FE01D0
:1035700073963EE0DF011D923A95E9F7442399F0F6
:103580009F938F937F936F938CE992E09F938F9398
:103590001F930F9329A30E9448330FB6F894DEBF00
:1035A0000FBECDBF29A11E82F80101900020E9F7CE
:1035B000319730E2CF01801B910B059714F43193C2
:1035C000F9CF80E28D83B801222319F084E595E0DC
:1035D00002C088ED93E00E94651F60E070E0CB01BF
:1035E0000E943514A1960FB6F894DEBF0FBECDBF72
:1035F000DF91CF911F910F910895CF92DF92EF92BB
:10360000FF92CF93DF936C01990FEE08FF08F7FE4E
:1036100016C06DE288ED93E00E947C1EEC01442709
:103620005527BA014C195D096E097F092AE088ED1A
:1036300093E00E940D1E7C01EC0EFD1E08C02AE0E6
:10364000B701A60188ED93E00E940D1E7C0188ED74
:1036500093E00E94561E8E0D9F1DDF91CF91FF902B
:10366000EF90DF90CF900895CF93DF93482F50E0F5
:1036700060E070E02AE088ED93E00E940D1EEC010E
:1036800088ED93E00E94561E8C0F9D1FDF91CF9115
:103690000895CF93DF93282F30E0F901E659F74FD3
:1036A0008491F901EA55F74FD491F901EE56F74F9D
:1036B000C491CC2391F081110E941518EC2FF0E0F9
:1036C000EE0FFF1FE857F74FA591B491EC91ED2352
:1036D00081E090E021F480E002C080E090E0DF91A2
:1036E000CF9108951F93CF93DF93282F30E0F901F6
:1036F000E659F74F8491F901EA55F74FD491F90152
:10370000EE56F74FC491CC23C9F0162F81110E94B9
:103710001518EC2FF0E0EE0FFF1FE258F74FA591C0
:10372000B4918FB7F894111105C09C91ED2FE095DD
:10373000E92302C0EC91ED2BEC938FBFDF91CF9189
:103740001F91089510928603109285031092B5037D
:103750001092D7031092B30381E08093B2031092CA
:103760008D0361E082E10E94721B61E083E10E94AF
:10377000721BE9EBF0E080818E7F808380818D7FFA
:10378000808388E48093B80085E48093BC0008952A
:10379000CF93DF9390E0FC01EA55F74F2491FC01B1
:1037A000EE56F74F8491882361F190E0880F991FBE
:1037B000FC01E05AF74FC591D491FC01E258F74F54
:1037C000A591B491611109C09FB7F89488812095A3
:1037D00082238883EC912E230BC0623061F49FB763
:1037E000F8943881822F809583238883EC912E2B47
:1037F0002C939FBF06C08FB7F894E8812E2B2883A7
:103800008FBFDF91CF9108958F929F92AF92BF9219
:10381000CF92DF92EF92FF926B017C010E943E18E3
:103820004B015C01C114D104E104F104F1F00E94E8
:103830003E18DC01CB0188199909AA09BB09883E09
:103840009340A105B10570F321E0C21AD108E10847
:10385000F10888EE880E83E0981EA11CB11CC114EB
:10386000D104E104F10419F7DDCFFF90EF90DF9070
:10387000CF90BF90AF909F908F9008952FB7F894FE
:1038800060917D0370917E0380917F03909180030E
:103890002FBF0895CF92DF92EF92FF920F931F9365
:1038A000CF93DF936C017A018B01C0E0D0E0CE159D
:1038B000DF0589F0D8016D918D01D601ED91FC9164
:1038C0000190F081E02DC6010995892B11F47E014C
:1038D00002C02196ECCFC701DF91CF911F910F91CC
:1038E000FF90EF90DF90CF900895FC01538D448DB1
:1038F000252F30E0842F90E0821B930B541710F09B
:10390000CF96089501970895FC01918D828D9817A7
:1039100061F0828DDF01A80FB11D5D968C91928DB3
:103920009F5F9F73928F90E008958FEF9FEF0895B0
:10393000FC01918D828D981731F0828DE80FF11D79
:10394000858D90E008958FEF9FEF0895FC01918D94
:10395000228D892F90E0805C9F4F821B91098F738D
:103960009927089588ED93E00E94A61C21E0892BF9
:1039700009F420E0822F0895FC01848DDF01A80F57
:10398000B11DA35ABF4F2C91848D90E001968F7387
:103990009927848FA689B7892C93A089B1898C91A6
:1039A00080648C93938D848D981306C00288F3896C
:1039B000E02D80818F7D80830895EF92FF920F9399
:1039C0001F93CF93DF93EC0181E0888F9B8D8C8DCB
:1039D000981305C0E889F989808185FD24C0F62EF9
:1039E0000B8D10E00F5F1F4F0F731127E02E8C8D92
:1039F000E8120CC00FB607FCFACFE889F98980817C
:103A000085FFF5CFCE010E94BC1CF1CF8B8DFE014E
:103A1000E80FF11DE35AFF4FF0820B8FEA89FB8913
:103A20008081806207C0EE89FF896083E889F98917
:103A300080818064808381E090E0DF91CF911F914D
:103A40000F91FF90EF900895CF93DF93EC01888D55
:103A50008823C9F0EA89FB89808185FD05C0A88992
:103A6000B9898C9186FD0FC00FB607FCF5CF808118
:103A700085FFF2CFA889B9898C9185FFEDCFCE0162
:103A80000E94BC1CE7CFDF91CF91089580E090E0C9
:103A9000892B29F00E94B21C81110C94000008951A
:103AA0002091890330918A032817390771F4909186
:103AB000870380918803981741F0E0918703F0E035
:103AC000EB5CF94F808190E008958FEF9FEF0895B0
:103AD00008951F93CF93DF93DC015C962D913C9169
:103AE0005D972115310539F481E090E013969C93A0
:103AF0008E9312973DC05196ED91FC91529750963E
:103B00009C915097892F80951FB75E964C915E9738
:103B100041FB772770F941FD6095F8944081772348
:103B200011F0492B01C048234083E9012197F1F7A7
:103B300048E0508160FF02C0592B01C058235083D8
:103B4000E9012197F1F76695415099F7772321F024
:103B500090818923808303C08081982B90831FBF2D
:103B60005C968D919C915D970197F1F721E030E093
:103B7000C901DF91CF911F91089520918903309160
:103B80008A032817390771F48091880320918703ED
:103B900090E0805C9F4F821B910960E470E00E947E
:103BA0007232089580E090E0089520918903309169
:103BB0008A0328173907B9F4909187038091880305
:103BC000981789F0E0918703F0E0EB5CF94F808172
:103BD0002091870330E02F5F3F4F2F7333272093CF
:103BE000870390E008958FEF9FEF08950E94E932D8
:103BF0006115710579F0FB0101900020E9F731971B
:103C0000AF01461B570BDC01ED91FC910280F38163
:103C1000E02D099480E090E008954F925F926F92BA
:103C20007F92EF92FF920F931F93CF93DF93CDB7C5
:103C3000DEB7A1970FB6F894DEBF0FBECDBF7C01F3
:103C4000FA01CB0119A2223008F42AE08E010F5D9F
:103C50001F4F422E512C612C712CBF01A3019201E8
:103C60000E948632F901CA01015011096A3014F428
:103C7000605D01C0695CD8016C93232B242B252B3C
:103C800061F7B801C7010E94F81DA1960FB6F8941C
:103C9000DEBF0FBECDBFDF91CF911F910F91FF907F
:103CA000EF907F906F905F904F90089560EA72E080
:103CB0000C94F81D0F931F93CF93DF93EC010E9498
:103CC000F81D8C01CE010E94561E800F911FDF91BE
:103CD000CF911F910F9108959A01452B39F4DC0182
:103CE000ED91FC910190F081E02D0994462F50E078
:103CF00060E070E00C940D1EDC01ED91FC910190F0
:103D0000F081E02D09944F925F926F927F928F9293
:103D10009F92AF92BF92CF92DF92EF92FF92CF939A
:103D2000DF93EC016A017B01B22E9A01AB01C7015E
:103D3000B6010E945132882319F063EA72E027C06D
:103D400026013701E89477F82FEF3FEF4FE75FE761
:103D5000C301B2010E94513281110DC02FEF3FEF1C
:103D60004FE75FE7C301B2010E94AC2F18161CF4A5
:103D700067EA72E00CC02FEF3FEF4FE75FE4C70147
:103D8000B6010E944C3218169CF46BEA72E0CE0128
:103D9000DF91CF91FF90EF90DF90CF90BF90AF90E9
:103DA0009F908F907F906F905F904F900C94F81D34
:103DB0002FEF3FEF4FE75FECC701B6010E94AC2F3A
:103DC00087FDE3CF20E030E0A901C701B6010E94E2
:103DD000AC2F87FF0AC06DE2CE010E947C1E4C0111
:103DE000F7FAF094F7F8F09402C0812C912CA12CF2
:103DF00060E070E080E09FE3AB1440F420E030E04E
:103E000040E251E40E94A431A394F6CF9B01AC019F
:103E1000C701B6010E9438312B013C010E941D32BE
:103E20006B017C010E94B12F9B01AC01C301B20167
:103E30000E9437312B013C012AE0B701A601CE01D7
:103E40000E940D1E7C01E80CF91CBB2031F06EE2D3
:103E5000CE010E947C1EE80EF91EDB2CDD2029F12C
:103E600020E030E040E251E4C301B2010E94123090
:103E70002B013C010E941D324B01A12CB12C2AE0E8
:103E8000B501A401CE010E940D1EE80EF91EC50168
:103E9000B4010E94B12F9B01AC01C301B2010E9489
:103EA00037312B013C01DA94D9CFC701DF91CF9193
:103EB000FF90EF90DF90CF90BF90AF909F908F904A
:103EC0007F906F905F904F9008950C94F81DEF9243
:103ED000FF920F931F93CF93DF938C017B01C0E080
:103EE000D0E0F701EC0FFD1F6491662361F0D8016B
:103EF000ED91FC910190F081E02DC8010995892B8D
:103F000011F02196EECFCE01DF91CF911F910F914D
:103F1000FF90EF9008950F931F93CF93DF93EC01E1
:103F20000E94671F8C01CE010E94561E800F911FB8
:103F3000DF91CF911F910F9108951F920F920FB6AD
:103F40000F9211242F933F934F935F936F937F931F
:103F50008F939F93AF93BF93EF93FF9388ED93E07D
:103F60000E94BC1CFF91EF91BF91AF919F918F91E7
:103F70007F916F915F914F913F912F910F900FBE65
:103F80000F901F9018951F920F920FB60F92112449
:103F90002F938F939F93EF93FF93E091E803F0911A
:103FA000E9038081E091EE03F091EF0382FD12C0FE
:103FB00090818091F1038F5F8F732091F2038217BC
:103FC00051F0E091F103F0E0E852FC4F958F8093BF
:103FD000F10301C08081FF91EF919F918F912F910B
:103FE0000F900FBE0F901F901895CF93DF931F92E5
:103FF000CDB7DEB7FC01808591E09093B403809348
:10400000D6031092B5031092D70380E490E0698341
:104010000E946318698181E095E00E9439110F9038
:10402000DF91CF910C946818CF93DF931F92CDB797
:10403000DEB7FC01808591E09093B4038093D603B2
:104040001092B5031092D70380E090E069830E943C
:104050006318698181E095E00E9439110F90DF912A
:10406000CF910C9468189F92AF92BF92CF92DF923B
:10407000EF92FF920F931F93CF93DF93EC016A307F
:1040800009F42BC16D3009F42EC1162F4B8550E079
:104090006D8570E0CA010497681779070CF012C1AA
:1040A0002C8530E08E85E82FF0E0D9011797EA17CC
:1040B000FB070CF007C19E81992361F0495051091B
:1040C000641775070CF0FEC02F503109E217F30793
:1040D0000CF0F8C0869586958695682F606BCE01AA
:1040E0000E9414206D856F70CE010E9414206D8592
:1040F00062956F706061CE010E941420612F70E0A4
:104100006052710985E0869F6001879FD00C112461
:10411000E12CF12CF701EC0DFD1DE654F74F6491F5
:104120008F81811160958E81882309F463C098E0A6
:1041300080E8A12CB12CAA0CBB1CAA0CBB1C282FFC
:104140002623281303C023E0A20EB11C86959150AC
:1041500091F76E85669566956695606BCE010E94B7
:1041600014206D859E2C990C690D6F70CE010E94F4
:1041700014208D858701000F111FB801680F711D74
:10418000607F7727E4E075956795EA95E1F76061D0
:10419000CE010E9414206A2DCE010E94F51F6A2DC7
:1041A000CE010E94F51F6E8570E0685F7F4FF3E0DF
:1041B00075956795FA95E1F7606BCE010E94142022
:1041C0006D85690D6F70CE010E9414208D85B80138
:1041D000680F711D607F7727A4E075956795AA9594
:1041E000E1F76061CE010E9414206B2DCE010E9488
:1041F000F51F6B2DCE010E94F51F8FEFE81AF80A0C
:1042000025E0E216F10409F085CF1F8111958E811A
:10421000882309F44BC06E85669566956695606B3C
:10422000CE010E9414206D85665F6F70CE010E94E2
:1042300014208D8590E00A96807F992724E095953B
:1042400087952A95E1F7682F6061CE010E941420BE
:10425000612FCE010E94F51F612FCE010E94F51F34
:104260006E8570E0685F7F4F33E0759567953A958E
:10427000E1F7606BCE010E9414206D85665F6F7060
:10428000CE010E9414208D8590E00A96807F9927A8
:1042900044E0959587954A95E1F7682F6061CE01D6
:1042A0000E941420612FCE010E94F51F612FCE01C4
:1042B0000E94F51F9E818D85992311F0845F01C0B6
:1042C0008A5F8D878D81882381F08B8590E00597AB
:1042D0002D8530E02817390744F08E85885F8E875A
:1042E00089898F5F898B1A8A1D8681E090E0DF9132
:1042F000CF911F910F91FF90EF90DF90CF90BF90E3
:10430000AF909F9008951F920F920FB60F921124B5
:104310002F933F934F935F936F937F938F939F93CD
:10432000AF93BF93EF93FF93E0918903F0918A03DA
:10433000309709F451C0968DA685B785858591FF84
:1043400004C09C91892329F447C09C91892309F0DA
:1043500043C0A389B4899C918589809589238C93D6
:10436000868997890197F1F7608D718DA685B7854C
:10437000558538E020E0CB010197F1F7822F90E0DE
:1043800095958795282F4C91452309F02068315049
:1043900091F7868D81FD20958091880390E00196AC
:1043A0008F73992730918703381749F0A0918803BC
:1043B000B0E0AB5CB94F2C938093880303C0868D2B
:1043C0008160868F828D938D0197F1F7A389B489DF
:1043D0009C918589892B8C93FF91EF91BF91AF912F
:1043E0009F918F917F916F915F914F913F912F910D
:1043F0000F900FBE0F901F9018951F920F920FB63F
:104400000F9211242F933F938F939F93AF93BF935A
:1044100080917D0390917E03A0917F03B0918003F2
:104420003091750623E0230F2D3720F40196A11D4E
:10443000B11D05C026E8230F0296A11DB11D2093D2
:10444000750680937D0390937E03A0937F03B093C2
:1044500080038091810390918203A0918303B091A6
:1044600084030196A11DB11D809381039093820363
:10447000A0938303B0938403BF91AF919F918F91D9
:104480003F912F910F900FBE0F901F901895CF93D3
:10449000DF93CDB7DEB7AD970FB6F894DEBF0FBE92
:1044A000CDBF789484B5826084BD84B5816084BDBD
:1044B00085B5826085BD85B5816085BD80916E00C2
:1044C000816080936E0010928100809181008260F3
:1044D0008093810080918100816080938100809130
:1044E00080008160809380008091B100846080931F
:1044F000B1008091B00081608093B00080917A001B
:10450000846080937A0080917A00826080937A0040
:1045100080917A00816080937A0080917A0080682F
:1045200080937A001092C100E091E803F091E903D2
:1045300082E08083E091E403F091E5031082E09152
:10454000E603F091E7038FEC80831092F003E09193
:10455000EC03F091ED0386E08083E091EA03F091B3
:10456000EB03808180618083E091EA03F091EB03AB
:10457000808188608083E091EA03F091EB03808181
:1045800080688083E091EA03F091EB0380818F7D66
:1045900080830E94A21B80E88093640580E2809360
:1045A00063050E94A21B80915E058823F1F061E003
:1045B0000E94C81B61E080915E050E94721B61E051
:1045C00070E080E090E00E94041C60E080915E0555
:1045D0000E94721B6AE070E080E090E00E94041C80
:1045E00061E080915E050E94721B6EEA84E595E0B1
:1045F0000E94142060E284E595E00E94142060E0AF
:1046000084E595E00E94142068EA84E595E00E9424
:1046100014206FE184E595E00E94142063ED84E5A9
:1046200095E00E94142060E084E595E00E9414204B
:1046300060E484E595E00E94142061EA84E595E059
:104640000E94142068EC84E595E00E9414206AED35
:1046500084E595E00E94142062E084E595E00E94E4
:10466000142061E884E595E00E9414206FE884E559
:1046700095E00E94142069ED84E595E00E941420E5
:1046800080915D05813011F462E201C061EF84E543
:1046900095E00E9414206BED84E595E00E941420C3
:1046A00060E484E595E00E94142064EA84E595E0E6
:1046B0000E94142066EA84E595E00E94142065EDCE
:1046C00084E595E00E94142060E884E595E00E946E
:1046D00014206DE884E595E00E94142080915D052A
:1046E000813011F460E101C064E184E595E00E944D
:1046F00014206FEA84E595E00E9414200E944A1A73
:1047000061E070E080E090E00E94041C60E080E0E6
:104710000E941C1A11E010935A0510935B056DEB73
:1047200073E084E595E00E94671F10925A0510928D
:104730005B0562E080E00E941C1A6AEA73E084E58F
:1047400095E00E94671F61E085E00E94C81B61E060
:1047500083E00E94C81B60E083E00E94721B61E05E
:1047600080E10E94C81B60E080E10E94721B61E052
:1047700084E00E94C81B60E084E00E94721B60E03D
:1047800086E00E94C81B62E087E00E94C81B62E0CE
:1047900082E00E94C81B1092800080E1809381001B
:1047A0001093B4028FB78093B502F89480E692E03C
:1047B0009093B3028093B202909387008093860017
:1047C0008091B5028FBF80918100887F80938100A6
:1047D000909181008091B402892B8093810080E0C8
:1047E00090E00E94CD1390910D058913D0C682E010
:1047F0000E94491B892B09F4CAC60E94D40680E096
:1048000090E00E94CD1390910D058917A9F188EDD4
:1048100093E00E94561E80E00E940A0761E873E060
:1048200088ED93E00E948B1F60ED77E080E090E0E0
:104830000E94041C62E080E00E941C1A6FE673E094
:1048400084E595E00E94671F63E082E00E941C1AE5
:104850006FE573E084E595E00E94671F68EB7BE0FD
:1048600080E090E00E94041C88ED93E00E94A61C6A
:10487000892B09F4B0C010C000E010E0C8010E940C
:10488000CD13682F88ED93E00E94DD1C0F5F1F4F52
:104890000734110599F7BBCF6FE473E088ED93E01F
:1048A0000E948B1FE4E0F1E001900020E9F73197CE
:1048B0009F0124503140790109F47EC000E010E0EE
:1048C0000E943E1C6093E0037093E1038093E20337
:1048D0009093E303E091D803F091D9030284F38528
:1048E000E02D88ED93E0099597FD0BC0F801EC5F92
:1048F000FE4F2081022E000C330B82179307F9F430
:1049000055C00E943E1C8090E0039090E103A0906F
:10491000E203B090E303DC01CB0188199909AA09ED
:10492000BB098090DC039090DD03A090DE03B09083
:10493000DF0388159905AA05BB0560F24CC0011577
:10494000110521F420E030E08901BACF9801A901D6
:1049500041505109FA01EC5FFE4F6081062E000CB8
:10496000770B86179707F1F44115510569F3A4E019
:10497000B1E060E070E06801C41AD50ABD90FB01A7
:10498000EC0DFD1DEC5FFE4FE081BE1629F06417B3
:104990007507D1F29A01DBCF6F5F7F4F6417750700
:1049A00068F3F5CF41155105A9F7CCCF98012F5FDA
:1049B0003F4F2E153F0541F66EE373E088ED93E01F
:1049C0000E948B1F81E00E940A0760ED77E080E083
:1049D00090E00E94041C62EA72E088ED93E00E947D
:1049E0005A1E0E948D1A9093B1028093B00261E327
:1049F00073E088ED93E00E94671F8091B002909170
:104A0000B1020E94FD1A85E090E09093C604809365
:104A1000C50461E00E94C81B1091C50461E0812FAC
:104A20000E94C81B60E0812F0E94721B8AE997E9EF
:104A3000ADE4B6E48093C7049093C804A093C9047E
:104A4000B093CA0480E891EEA8E5B7E18093D6045C
:104A50009093D704A093D804B093D90480E49DE93F
:104A6000ADECBAE28093DA049093DB04A093DC040B
:104A7000B093DD0480EC9FE9A9E8B0E18093DE0407
:104A80009093DF04A093E004B093E10480912405A7
:104A900090E027E0EDE2F1E0DF011D922A95E9F7D1
:104AA000ACE1B5E02D91222329F0219321E0E333FD
:104AB000F207C1F79093D6028093D50280911B052F
:104AC00090E027E0E4E3F1E0DF011D922A95E9F7A9
:104AD000A3E1B5E02D91222329F0219321E0EA33CF
:104AE000F207C1F79093D8028093D70280913505E1
:104AF0008093190180E1E9E0F1E0DF011D928A95E0
:104B0000E9F7A5E2B5E08D91882329F0819321E0B2
:104B1000E831F207C1F780913E0590E027E0E6E238
:104B2000F1E0DF011D922A95E9F7A6E3B5E02D91AA
:104B3000222329F0219321E0EC32F207C1F7909370
:104B40002501809324018091470590E027E0EDE165
:104B5000F1E0DF011D922A95E9F7AFE3B5E02D9171
:104B6000222329F0219321E0E332F207C1F7909349
:104B70001C0180931B0180914A058A3010F48093B8
:104B8000030180914B058A3010F4809302018091DB
:104B90004C058A3010F48093010180914D058A30D4
:104BA00010F48093000180914E058093080180915C
:104BB0004F05809307018091480590914905899F91
:104BC000C001112490933D0180933C0167EC71E09A
:104BD00088ED93E00E948B1F69EB71E088ED93E014
:104BE0000E94671F6DE271E088ED93E00E94651FEF
:104BF00067EB71E088ED93E00E94671F8091D5021A
:104C00009091D6020E94FD1A69EA71E088ED93E066
:104C10000E94671F64E371E088ED93E00E94651FC6
:104C200067EA71E088ED93E00E94671F8091D702E8
:104C30009091D8020E94FD1A69E971E088ED93E035
:104C40000E94671F66E271E088ED93E00E94651F95
:104C500067E971E088ED93E00E94671F809124016D
:104C6000909125010E94FD1A69E871E088ED93E0BA
:104C70000E94671F6DE171E088ED93E00E94651F5F
:104C800067E871E088ED93E00E94671F80911B0147
:104C900090911C010E94FD1A69E771E088ED93E094
:104CA0000E94671F8091BB02811107C065E771E018
:104CB00088ED93E00E948B1F10C06BEB72E088EDD3
:104CC00093E00E94651F63E771E088ED93E00E9426
:104CD000671F8FEF9FEF0E94FD1A65E671E088ED78
:104CE00093E00E94671F809108010E94341B67E5D2
:104CF00071E088ED93E00E94671F809107010E9498
:104D0000341B69E471E088ED93E00E94671F8FE235
:104D100080931A0162E471E088ED93E00E948B1F9A
:104D200064E371E088ED93E00E94671F60911901D0
:104D300088ED93E00E947C1E88ED93E00E94561E51
:104D400066E271E088ED93E00E94671F80910301A5
:104D50008A3018F40E94341B06C062E271E088EDCC
:104D600093E00E948B1F64E171E088ED93E00E9464
:104D7000671F809102018A3018F40E94341B06C01C
:104D800060E171E088ED93E00E948B1F62E071E0CA
:104D900088ED93E00E94671F809101018A3018F42A
:104DA0000E94341B06C06EEF70E088ED93E00E9415
:104DB0008B1F60EF70E088ED93E00E94671F809189
:104DC00000018A3018F40E94341B06C06CEE70E0BB
:104DD00088ED93E00E948B1F6EED70E088ED93E00C
:104DE0000E94671F8091CC02882339F06CEC72E03E
:104DF00088ED93E00E945A1E06C06AED70E088EDCF
:104E000093E00E948B1F6CEC70E088ED93E00E94B1
:104E1000671F8091C202882339F062EC72E088ED4E
:104E200093E00E945A1E06C068EC70E088ED93E0A3
:104E30000E948B1F6AEB70E088ED93E00E94671F71
:104E400069E071E088ED93E00E945A1E62E273E02F
:104E500088ED93E00E94671F2091760630917706D7
:104E6000CE0101962115310519F48A57964018C0D4
:104E7000AC01421B530BE0917806F091790680E07B
:104E800090E0309759F09C012E5F3F4F80819181D7
:104E9000820F931F0280F381E02DF3CF840F951FC3
:104EA0009A83898389819A810E94FD1A0E948319BD
:104EB00020911205409111056091100580910F0518
:104EC0000E94CF1360E173E087E695E00E948B1F9C
:104ED0006FEF72E087E695E00E948B1F6DE972E04C
:104EE00088ED93E00E948B1F6BE372E088ED93E006
:104EF0000E948B1F69ED71E088ED93E00E948B1F8B
:104F00000E944A1A2091520530E0A8EEB3E00E94B8
:104F100028316093DA027093DB028093DC02909375
:104F2000DD02CE0101961C014091EE051092EF05C5
:104F30006091F4057091F5058091F6059091F70563
:104F400020E00E94A01A4091FC051092FD0560919E
:104F5000020670910306809104069091050620E0F8
:104F60000E94A01A109287056091880570918905AA
:104F700080E090E00E94B12F6B017C0160918A0576
:104F800070918B0580918C0590918D050E94B12FB9
:104F900028E23BE64EE65EE40E94A4319B01AC01B0
:104FA000C701B6010E9438314B015C0180918E052A
:104FB000882321F0B7FAB094B7F8B09460918F05C8
:104FC0007091900580E090E00E94B12F6B017C0110
:104FD000609191057091920580919305909194054F
:104FE0000E94B12F28E23BE64EE65EE40E94A43127
:104FF0009B01AC01C701B6010E9438312B013C0175
:1050000080919505882321F077FA709477F8709451
:1050100080918605882389F00E943E1C0091A4059A
:105020001091A5052091A6053091A7056B017C0183
:10503000C01AD10AE20AF30A04C0CC24CA94DC2CB8
:105040007601CDA2DEA2EFA2F8A61092C50560916E
:10505000CA057091CB058091CC059091CD050E9439
:10506000B32F26E53EE04DEE5FE30E94123020E0D4
:1050700030E048EC52E40E94A4310E941D3269A342
:105080007AA38BA39CA340918605411114C0809103
:105090005305813081F4B3E24B2EB2E25B2EB0E9CE
:1050A0006B2EB0E47B2E18ED812E1BE4912E10E5C3
:1050B000A12E12E4B12EE12C06E010E02BE030E04E
:1050C000C501B4010E948A172CE030E040918605AA
:1050D000C301B2010E948A1720E0409186056DA1AC
:1050E0007EA18FA198A50E94A01A8091A805811188
:1050F00007C06EED73E088ED93E00E94671F42C029
:105100001092A905C090AA05D090AB05E090AC051F
:10511000F090AD05C701B60124E630E040E050E074
:105120000E94863229A73AA74BA75CA76053784F05
:105130007F936F93C701B60120E137E240E050E072
:105140000E9486321F922F9369A57AA58BA59CA5F4
:1051500024E630E040E050E00E9486327F936F9377
:10516000A5EFB1E0BF93AF933F922F920E944833D7
:10517000B10188ED93E00E94651F0FB6F894DEBF81
:105180000FBECDBF8091B605811107C069EC73E0F9
:1051900088ED93E00E94671F4AC01092B705C09047
:1051A000B805D090B905E090BA05F090BB05C701ED
:1051B000B60124E630E040E050E00E948632CA01A9
:1051C000B90124E630E040E050E00E9486327F934F
:1051D0006F93C701B60120E137E240E050E00E9442
:1051E0008632CA01B90124E630E040E050E00E9476
:1051F00086327F936F93C701B60120E432E44FE01B
:1052000050E00E9486321F922F93A5E0B2E0BF9338
:10521000AF933F922F920E944833B10188ED93E003
:105220000E94651F0FB6F894DEBF0FBECDBF409140
:10523000A805442389F04DA70E943E1C0091B205A9
:105240001091B3052091B4053091B505601B710B29
:10525000820B930B4DA503C06FEF7FEFCB0120E0D6
:105260000E94A01A60E070E0CB010E943514F0901B
:10527000E0051092E1056091E6057091E7058091E7
:10528000E8059091E9050E94B32F20E030E048EC5A
:1052900052E40E94A431E12C02E010E027E030E06B
:1052A0004F2D0E948A17F090D2051092D30560917D
:1052B000D8057091D9058091DA059091DB050E949F
:1052C000B32F20E030E048EC52E40E94A43127E004
:1052D00030E04F2D0E948A1769A17AA18BA19CA171
:1052E0000E94B12F26E030E04091C4050E948A1749
:1052F0008091D205882339F11092D3056091D805A9
:105300007091D9058091DA059091DB050E94B32F49
:1053100020E030E044E351E40E94383120E030E006
:1053200044EB51E40E94A4310E941632CB0160E1AB
:1053300070E00E947232FC01EE0FFF1FE25CFE4F34
:10534000C080D18004C070EFC72E71E0D72EF60167
:1053500001900020E9F731977F01EC18FD0800E08B
:1053600010E00E151F052CF4F601E00FF11F60810F
:1053700001C060E288ED93E00E947C1E0F5F1F4F2A
:105380000630110571F760E070E0CB010E94351422
:1053900060913C0170913D0189A19AA1ABA1BCA192
:1053A0000197A109B1098F319E44A105B10590F47F
:1053B000072E000C880B990B29A13AA14BA15CA1E7
:1053C0000E9486328091480590E02817390718F42A
:1053D0009C0101C09B016901E12CF12C2AE0B7017D
:1053E000A60188ED93E00E940D1E8091860588231A
:1053F00051F08DA19EA1AFA1B8A5893B9B40A1050D
:10540000B10508F4CDC0809153058111C9C060E198
:1054100074E088ED93E00E94671F10923B011092A8
:10542000B90200E0A3019201C501B4010E94D80BAA
:10543000A3019201C501B4010E946D0E60ED77E0F9
:1054400080E090E00E9435149091BA028091B802F9
:105450009817A9F166EF73E088ED93E00E94671F4B
:105460008091B8028093BA028823B9F00E943E1C52
:105470006093E2027093E3028093E4029093E5026A
:1054800061E083E00E94721B61E084E00E94721B75
:1054900061E080E10E94721B12C060E083E00E9424
:1054A000721B60E084E00E94721B60E080E10E9459
:1054B000721B80915105813011F48093B9020E94D2
:1054C0003E1C6093DE027093DF028093E0029093B3
:1054D000E1020091E2021091E3022091E402309196
:1054E000E502DC01CB01801B910BA20BB30B0091F9
:1054F000DA021091DB022091DC023091DD02081704
:1055000019072A073B0724F580915205882301F1EA
:105510008091BA028823E1F09091D90281E0892735
:105520008093D902882311F067EA01C066EA84E516
:1055300095E00E94142060E083E00E94721B60E00E
:1055400084E00E94721B60E080E10E94721B05C033
:1055500066EA84E595E00E94142064EF73E088ED2C
:1055600093E00E94671F0E948D1A0E94C5188091C7
:10557000BA02882319F060EF73E002C06CEE73E0AA
:1055800088ED93E00E948B1F0E94461DCDCC69E9F7
:1055900073E088ED93E00E948B1F0E94F3062DC9F3
:1055A00081E080933B018091BA02811138CF8091D4
:1055B000B90281111AC00E943E1C0091E6021091AE
:1055C000E7022091E8023091E902601B710B820B27
:1055D000930B28EE33E040E050E00E948632C21682
:1055E000D306E406F50608F01ACF0E943E1C60932D
:1055F000E6027093E7028093E8029093E90201E0EB
:10560000A3019201C501B4010E94D80BA30192012C
:10561000C501B4010E946D0E62EA72E088ED93E06C
:105620000E945A1E63E074E088ED93E00E94671FB9
:1056300080910E0520E040E0682F0E94CF1364E6C1
:1056400070E080E090E00E94041C87E695E00E94F4
:10565000621241E0C501B4010E94FB0A29E0ECECB2
:10566000F2E0DF011D922A95E9F7DC012D91CD01D1
:10567000222329F0219322E0E43DF207B1F740E034
:10568000C301B2010E94FB0A2AE0E2ECF2E0DF0172
:105690001D922A95E9F7DC019D91992329F09193B8
:1056A00022E0EB3CF207C1F762EA72E088ED93E09A
:1056B0000E945A1E80915005882369F067EA84E5AC
:1056C00095E00E94142061E083E00E94721B61E07B
:1056D00080E10E94721B60E971E080E090E00E942E
:1056E000041C85B5887F816085BDC0906E001092D6
:1056F0006E00D0906800109268008DE296E0909362
:10570000B7028093B60211E010936F009091810070
:105710008091B402892B8093810088E4E5E7F4E06E
:10572000DF011D928A95E9F710928C0310928B038A
:1057300061E084E391E00E946A1920918B0330912B
:105740008C03F901EB58FB4F8091D702805D90E00C
:10575000880F991F80832F5F3F4F30938C032093D6
:105760008B0361E08DE291E00E946A1920918B0326
:1057700030918C03F901EB58FB4F8091D502805D8D
:1057800090E0880F991F80832F5F3F4F30938C03E9
:1057900020938B0361E086E291E00E946A192091D8
:1057A0008B0330918C03F901EB58FB4F00E400832D
:1057B00080912401805D90E0880F991F81832E5F86
:1057C0003F4F30938C0320938B0361E08DE191E098
:1057D0000E946A1920918B0330918C03F901EB58D8
:1057E000FB4F008380911B01805D880F8160818366
:1057F00083E0828380EF838381E284832B5F3F4F4A
:1058000030938C0320938B0360E08CEC92E00E9439
:105810006A1980918B0390918C03FC01EB58FB4F2C
:1058200020911A012083019690938C0380938B031F
:1058300060E082EC92E00E946A1980918B03909163
:105840008C03FC01EB58FB4F20911901208301963A
:1058500090938C0380938B0360E089E091E00E9439
:105860006A1980918B0390918C03FC01EB58FB4FDC
:105870001082F82E8FEF9FEF9093F4048093F3043F
:105880001092F00486E090E09093E7048093E604A1
:105890001093CB048091DA049091DB04A091DC0496
:1058A000B091DD048093D2049093D304A093D404E8
:1058B000B093D5041092E5041092E4048091E404BE
:1058C0009091E5040B97D4F381E08093F10410925A
:1058D000F20410E080910801181728F48EE70E9466
:1058E000F9181F5FF7CF1092F10405E714E0802F3D
:1058F00025E734E0821B8F1530F4F80181918F0188
:105900000E94F918F4CF11E01093F2048091F3048F
:1059100080950E94F9188091F4048093F30410920A
:10592000F40480950E94F9181092F2041093F10487
:1059300010E080910701181728F48EE70E94F918EB
:105940001F5FF7CF88ED93E00E94561E05E714E035
:10595000FF24F394D8016D918D01662391F063309B
:1059600051F0FF2041F070E07595679588ED93E068
:105970000E94DD1CEFCF88ED93E00E94DD1CF12C2E
:10598000E9CF62EA72E088ED93E00E945A1E05E7D3
:1059900014E0F801E557F4407F01D8016D918D01C5
:1059A000662339F040E150E088ED93E00E946C1EE0
:1059B000F0CF6AEE73E088ED93E00E94671FC701A5
:1059C0000E94C51860E083E00E94721B60E080E1E5
:1059D0000E94721B66EA84E595E00E941420809183
:1059E0006F008E7F80936F0061E085E00E94C81B8E
:1059F00060E085E00E94721B85B5887F836085BD6D
:105A0000C0926E00D09268001092E80462EA72E0E0
:105A100088ED93E00E945A1E0E94831964EF71E0A2
:105A200080E090E00E94041C209112054091110535
:105A30006091100580910F050E94CF13F0CC82EE8B
:105A400091E0909368058093670587E695E00C9454
:105A50006212CF93DF93CDB7DEB7C754D1090FB62B
:105A6000F894DEBF0FBECDBF1092DB031092DA03B5
:105A700088EE93E0A0E0B0E08093DC039093DD0338
:105A8000A093DE03B093DF0322EB31E03093D90320
:105A90002093D80325EC30E03093E5032093E40312
:105AA00024EC30E03093E7032093E60320EC30E071
:105AB0003093E9032093E80321EC30E03093EB03CB
:105AC0002093EA0322EC30E03093ED032093EC03C3
:105AD00026EC30E03093EF032093EE031092F103B5
